{
  "contractName": "IPSCrowdsale",
  "abi": [
    {
      "constant": true,
      "inputs": [],
      "name": "refundVault",
      "outputs": [
        {
          "name": "",
          "type": "address"
        }
      ],
      "payable": false,
      "stateMutability": "view",
      "type": "function"
    },
    {
      "constant": true,
      "inputs": [],
      "name": "EXCHANGE_RATE",
      "outputs": [
        {
          "name": "",
          "type": "uint256"
        }
      ],
      "payable": false,
      "stateMutability": "view",
      "type": "function"
    },
    {
      "constant": true,
      "inputs": [],
      "name": "rate",
      "outputs": [
        {
          "name": "",
          "type": "uint256"
        }
      ],
      "payable": false,
      "stateMutability": "view",
      "type": "function"
    },
    {
      "constant": true,
      "inputs": [
        {
          "name": "",
          "type": "address"
        }
      ],
      "name": "presaleGranteesMap",
      "outputs": [
        {
          "name": "",
          "type": "uint256"
        }
      ],
      "payable": false,
      "stateMutability": "view",
      "type": "function"
    },
    {
      "constant": true,
      "inputs": [],
      "name": "endTime",
      "outputs": [
        {
          "name": "",
          "type": "uint256"
        }
      ],
      "payable": false,
      "stateMutability": "view",
      "type": "function"
    },
    {
      "constant": true,
      "inputs": [],
      "name": "weiRaised",
      "outputs": [
        {
          "name": "",
          "type": "uint256"
        }
      ],
      "payable": false,
      "stateMutability": "view",
      "type": "function"
    },
    {
      "constant": false,
      "inputs": [],
      "name": "finalize",
      "outputs": [],
      "payable": false,
      "stateMutability": "nonpayable",
      "type": "function"
    },
    {
      "constant": false,
      "inputs": [],
      "name": "claimOwnership",
      "outputs": [],
      "payable": false,
      "stateMutability": "nonpayable",
      "type": "function"
    },
    {
      "constant": true,
      "inputs": [],
      "name": "wallet",
      "outputs": [
        {
          "name": "",
          "type": "address"
        }
      ],
      "payable": false,
      "stateMutability": "view",
      "type": "function"
    },
    {
      "constant": true,
      "inputs": [],
      "name": "walletTeam",
      "outputs": [
        {
          "name": "",
          "type": "address"
        }
      ],
      "payable": false,
      "stateMutability": "view",
      "type": "function"
    },
    {
      "constant": true,
      "inputs": [],
      "name": "walletReserve",
      "outputs": [
        {
          "name": "",
          "type": "address"
        }
      ],
      "payable": false,
      "stateMutability": "view",
      "type": "function"
    },
    {
      "constant": true,
      "inputs": [],
      "name": "startTime",
      "outputs": [
        {
          "name": "",
          "type": "uint256"
        }
      ],
      "payable": false,
      "stateMutability": "view",
      "type": "function"
    },
    {
      "constant": true,
      "inputs": [],
      "name": "isFinalized",
      "outputs": [
        {
          "name": "",
          "type": "bool"
        }
      ],
      "payable": false,
      "stateMutability": "view",
      "type": "function"
    },
    {
      "constant": true,
      "inputs": [],
      "name": "owner",
      "outputs": [
        {
          "name": "",
          "type": "address"
        }
      ],
      "payable": false,
      "stateMutability": "view",
      "type": "function"
    },
    {
      "constant": true,
      "inputs": [],
      "name": "fiatRaisedConvertedToWei",
      "outputs": [
        {
          "name": "",
          "type": "uint256"
        }
      ],
      "payable": false,
      "stateMutability": "view",
      "type": "function"
    },
    {
      "constant": true,
      "inputs": [],
      "name": "MAX_TOKEN_GRANTEES",
      "outputs": [
        {
          "name": "",
          "type": "uint8"
        }
      ],
      "payable": false,
      "stateMutability": "view",
      "type": "function"
    },
    {
      "constant": true,
      "inputs": [],
      "name": "walletBounties",
      "outputs": [
        {
          "name": "",
          "type": "address"
        }
      ],
      "payable": false,
      "stateMutability": "view",
      "type": "function"
    },
    {
      "constant": true,
      "inputs": [
        {
          "name": "",
          "type": "uint256"
        }
      ],
      "name": "presaleGranteesMapKeys",
      "outputs": [
        {
          "name": "",
          "type": "address"
        }
      ],
      "payable": false,
      "stateMutability": "view",
      "type": "function"
    },
    {
      "constant": true,
      "inputs": [],
      "name": "pendingOwner",
      "outputs": [
        {
          "name": "",
          "type": "address"
        }
      ],
      "payable": false,
      "stateMutability": "view",
      "type": "function"
    },
    {
      "constant": false,
      "inputs": [
        {
          "name": "beneficiary",
          "type": "address"
        }
      ],
      "name": "buyTokens",
      "outputs": [],
      "payable": true,
      "stateMutability": "payable",
      "type": "function"
    },
    {
      "constant": true,
      "inputs": [],
      "name": "hasEnded",
      "outputs": [
        {
          "name": "",
          "type": "bool"
        }
      ],
      "payable": false,
      "stateMutability": "view",
      "type": "function"
    },
    {
      "constant": false,
      "inputs": [
        {
          "name": "newOwner",
          "type": "address"
        }
      ],
      "name": "transferOwnership",
      "outputs": [],
      "payable": false,
      "stateMutability": "nonpayable",
      "type": "function"
    },
    {
      "constant": true,
      "inputs": [],
      "name": "walletOEM",
      "outputs": [
        {
          "name": "",
          "type": "address"
        }
      ],
      "payable": false,
      "stateMutability": "view",
      "type": "function"
    },
    {
      "constant": true,
      "inputs": [],
      "name": "token",
      "outputs": [
        {
          "name": "",
          "type": "address"
        }
      ],
      "payable": false,
      "stateMutability": "view",
      "type": "function"
    },
    {
      "constant": true,
      "inputs": [],
      "name": "REFUND_DIVISION_RATE",
      "outputs": [
        {
          "name": "",
          "type": "uint256"
        }
      ],
      "payable": false,
      "stateMutability": "view",
      "type": "function"
    },
    {
      "inputs": [
        {
          "name": "_startTime",
          "type": "uint256"
        },
        {
          "name": "_endTime",
          "type": "uint256"
        },
        {
          "name": "_wallet",
          "type": "address"
        },
        {
          "name": "_walletTeam",
          "type": "address"
        },
        {
          "name": "_walletOEM",
          "type": "address"
        },
        {
          "name": "_walletBounties",
          "type": "address"
        },
        {
          "name": "_walletReserve",
          "type": "address"
        },
        {
          "name": "_ipsSmartToken",
          "type": "address"
        },
        {
          "name": "_refundVault",
          "type": "address"
        }
      ],
      "payable": false,
      "stateMutability": "nonpayable",
      "type": "constructor"
    },
    {
      "payable": true,
      "stateMutability": "payable",
      "type": "fallback"
    },
    {
      "anonymous": false,
      "inputs": [
        {
          "indexed": true,
          "name": "_grantee",
          "type": "address"
        },
        {
          "indexed": false,
          "name": "_amount",
          "type": "uint256"
        }
      ],
      "name": "GrantAdded",
      "type": "event"
    },
    {
      "anonymous": false,
      "inputs": [
        {
          "indexed": true,
          "name": "_grantee",
          "type": "address"
        },
        {
          "indexed": false,
          "name": "_oldAmount",
          "type": "uint256"
        },
        {
          "indexed": false,
          "name": "_newAmount",
          "type": "uint256"
        }
      ],
      "name": "GrantUpdated",
      "type": "event"
    },
    {
      "anonymous": false,
      "inputs": [
        {
          "indexed": true,
          "name": "_grantee",
          "type": "address"
        },
        {
          "indexed": false,
          "name": "_hadAmount",
          "type": "uint256"
        }
      ],
      "name": "GrantDeleted",
      "type": "event"
    },
    {
      "anonymous": false,
      "inputs": [
        {
          "indexed": true,
          "name": "_address",
          "type": "address"
        },
        {
          "indexed": false,
          "name": "_fiatRaised",
          "type": "uint256"
        }
      ],
      "name": "FiatRaisedUpdated",
      "type": "event"
    },
    {
      "anonymous": false,
      "inputs": [
        {
          "indexed": true,
          "name": "purchaser",
          "type": "address"
        },
        {
          "indexed": true,
          "name": "beneficiary",
          "type": "address"
        },
        {
          "indexed": false,
          "name": "value",
          "type": "uint256"
        },
        {
          "indexed": false,
          "name": "amount",
          "type": "uint256"
        }
      ],
      "name": "TokenPurchaseWithGuarantee",
      "type": "event"
    },
    {
      "anonymous": false,
      "inputs": [],
      "name": "Finalized",
      "type": "event"
    },
    {
      "anonymous": false,
      "inputs": [
        {
          "indexed": true,
          "name": "previousOwner",
          "type": "address"
        },
        {
          "indexed": true,
          "name": "newOwner",
          "type": "address"
        }
      ],
      "name": "OwnershipTransferred",
      "type": "event"
    },
    {
      "anonymous": false,
      "inputs": [
        {
          "indexed": true,
          "name": "purchaser",
          "type": "address"
        },
        {
          "indexed": true,
          "name": "beneficiary",
          "type": "address"
        },
        {
          "indexed": false,
          "name": "value",
          "type": "uint256"
        },
        {
          "indexed": false,
          "name": "amount",
          "type": "uint256"
        }
      ],
      "name": "TokenPurchase",
      "type": "event"
    },
    {
      "constant": true,
      "inputs": [],
      "name": "getRate",
      "outputs": [
        {
          "name": "",
          "type": "uint256"
        }
      ],
      "payable": false,
      "stateMutability": "view",
      "type": "function"
    },
    {
      "constant": true,
      "inputs": [],
      "name": "getTotalFundsRaised",
      "outputs": [
        {
          "name": "",
          "type": "uint256"
        }
      ],
      "payable": false,
      "stateMutability": "view",
      "type": "function"
    },
    {
      "constant": true,
      "inputs": [],
      "name": "isActive",
      "outputs": [
        {
          "name": "",
          "type": "bool"
        }
      ],
      "payable": false,
      "stateMutability": "view",
      "type": "function"
    },
    {
      "constant": false,
      "inputs": [
        {
          "name": "_grantee",
          "type": "address"
        },
        {
          "name": "_value",
          "type": "uint256"
        }
      ],
      "name": "addUpdateGrantee",
      "outputs": [],
      "payable": false,
      "stateMutability": "nonpayable",
      "type": "function"
    },
    {
      "constant": false,
      "inputs": [
        {
          "name": "_grantee",
          "type": "address"
        }
      ],
      "name": "deleteGrantee",
      "outputs": [],
      "payable": false,
      "stateMutability": "nonpayable",
      "type": "function"
    },
    {
      "constant": false,
      "inputs": [
        {
          "name": "_fiatRaisedConvertedToWei",
          "type": "uint256"
        }
      ],
      "name": "setFiatRaisedConvertedToWei",
      "outputs": [],
      "payable": false,
      "stateMutability": "nonpayable",
      "type": "function"
    },
    {
      "constant": false,
      "inputs": [],
      "name": "claimTokenOwnership",
      "outputs": [],
      "payable": false,
      "stateMutability": "nonpayable",
      "type": "function"
    },
    {
      "constant": false,
      "inputs": [],
      "name": "claimRefundVaultOwnership",
      "outputs": [],
      "payable": false,
      "stateMutability": "nonpayable",
      "type": "function"
    },
    {
      "constant": false,
      "inputs": [],
      "name": "buyTokensWithGuarantee",
      "outputs": [],
      "payable": true,
      "stateMutability": "payable",
      "type": "function"
    }
  ],
  "bytecode": "0x60806040526000600760146101000a81548160ff0219169083151502179055503480156200002c57600080fd5b5060405161012080620030a683398101806040528101908080519060200190929190805190602001909291908051906020019092919080519060200190929190805190602001909291908051906020019092919080519060200190929190805190602001909291908051906020019092919050505088886101f48985428510151515620000b857600080fd5b848410151515620000c857600080fd5b600083111515620000d857600080fd5b600073ffffffffffffffffffffffffffffffffffffffff168273ffffffffffffffffffffffffffffffffffffffff16141515156200011557600080fd5b600073ffffffffffffffffffffffffffffffffffffffff168173ffffffffffffffffffffffffffffffffffffffff16141515156200015257600080fd5b84600181905550836002819055508260048190555081600360006101000a81548173ffffffffffffffffffffffffffffffffffffffff021916908373ffffffffffffffffffffffffffffffffffffffff160217905550806000806101000a81548173ffffffffffffffffffffffffffffffffffffffff021916908373ffffffffffffffffffffffffffffffffffffffff160217905550505050505033600660006101000a81548173ffffffffffffffffffffffffffffffffffffffff021916908373ffffffffffffffffffffffffffffffffffffffff160217905550600073ffffffffffffffffffffffffffffffffffffffff168673ffffffffffffffffffffffffffffffffffffffff16141515156200026b57600080fd5b600073ffffffffffffffffffffffffffffffffffffffff168573ffffffffffffffffffffffffffffffffffffffff1614151515620002a857600080fd5b600073ffffffffffffffffffffffffffffffffffffffff168473ffffffffffffffffffffffffffffffffffffffff1614151515620002e557600080fd5b600073ffffffffffffffffffffffffffffffffffffffff168373ffffffffffffffffffffffffffffffffffffffff16141515156200032257600080fd5b600073ffffffffffffffffffffffffffffffffffffffff168273ffffffffffffffffffffffffffffffffffffffff16141515156200035f57600080fd5b600073ffffffffffffffffffffffffffffffffffffffff168173ffffffffffffffffffffffffffffffffffffffff16141515156200039c57600080fd5b85600860006101000a81548173ffffffffffffffffffffffffffffffffffffffff021916908373ffffffffffffffffffffffffffffffffffffffff16021790555084600960006101000a81548173ffffffffffffffffffffffffffffffffffffffff021916908373ffffffffffffffffffffffffffffffffffffffff16021790555083600a60006101000a81548173ffffffffffffffffffffffffffffffffffffffff021916908373ffffffffffffffffffffffffffffffffffffffff16021790555082600b60006101000a81548173ffffffffffffffffffffffffffffffffffffffff021916908373ffffffffffffffffffffffffffffffffffffffff160217905550816000806101000a81548173ffffffffffffffffffffffffffffffffffffffff021916908373ffffffffffffffffffffffffffffffffffffffff16021790555080600f60006101000a81548173ffffffffffffffffffffffffffffffffffffffff021916908373ffffffffffffffffffffffffffffffffffffffff160217905550505050505050505050612b6c806200053a6000396000f3006080604052600436106101ac576000357c0100000000000000000000000000000000000000000000000000000000900463ffffffff1680630c3e2d2d146101b757806310731a65146101e257806311777af7146101f957806314a8bd0d1461025057806322f3e2d41461027b5780632c4e722e146102aa5780632dd96c84146102d55780633197cbb61461032c5780634042b66f146103575780634bb278f3146103825780634e71e0c8146103995780634eb56999146103b0578063521eb273146103c7578063562776191461041e578063679aefce1461044b578063688ba636146104765780636e3f8550146104cd57806378e979251461052457806385b9f6071461054f5780638d4e4083146105595780638da5cb5b14610588578063914d581d146105df57806391f5f3c91461060a5780639e3d49db1461063b578063af1034ab14610692578063cbe0e49a146106df578063d316e9121461074c578063e30c39781461078f578063ec8ac4d8146107e6578063ecb70fb71461081c578063f2fde38b1461084b578063f9ef33ff1461088e578063fc0c546a146108e5578063fcb750cf1461093c575b6101b533610967565b005b3480156101c357600080fd5b506101cc610b49565b6040518082815260200191505060405180910390f35b3480156101ee57600080fd5b506101f7610b67565b005b34801561020557600080fd5b5061020e610c62565b604051808273ffffffffffffffffffffffffffffffffffffffff1673ffffffffffffffffffffffffffffffffffffffff16815260200191505060405180910390f35b34801561025c57600080fd5b50610265610c88565b6040518082815260200191505060405180910390f35b34801561028757600080fd5b50610290610c8e565b604051808215151515815260200191505060405180910390f35b3480156102b657600080fd5b506102bf610ca8565b6040518082815260200191505060405180910390f35b3480156102e157600080fd5b50610316600480360381019080803573ffffffffffffffffffffffffffffffffffffffff169060200190929190505050610cae565b6040518082815260200191505060405180910390f35b34801561033857600080fd5b50610341610cc6565b6040518082815260200191505060405180910390f35b34801561036357600080fd5b5061036c610ccc565b6040518082815260200191505060405180910390f35b34801561038e57600080fd5b50610397610cd2565b005b3480156103a557600080fd5b506103ae610dae565b005b3480156103bc57600080fd5b506103c5610f4f565b005b3480156103d357600080fd5b506103dc61104b565b604051808273ffffffffffffffffffffffffffffffffffffffff1673ffffffffffffffffffffffffffffffffffffffff16815260200191505060405180910390f35b34801561042a57600080fd5b5061044960048036038101908080359060200190929190505050611071565b005b34801561045757600080fd5b5061046061113a565b6040518082815260200191505060405180910390f35b34801561048257600080fd5b5061048b611375565b604051808273ffffffffffffffffffffffffffffffffffffffff1673ffffffffffffffffffffffffffffffffffffffff16815260200191505060405180910390f35b3480156104d957600080fd5b506104e261139b565b604051808273ffffffffffffffffffffffffffffffffffffffff1673ffffffffffffffffffffffffffffffffffffffff16815260200191505060405180910390f35b34801561053057600080fd5b506105396113c1565b6040518082815260200191505060405180910390f35b6105576113c7565b005b34801561056557600080fd5b5061056e61169c565b604051808215151515815260200191505060405180910390f35b34801561059457600080fd5b5061059d6116af565b604051808273ffffffffffffffffffffffffffffffffffffffff1673ffffffffffffffffffffffffffffffffffffffff16815260200191505060405180910390f35b3480156105eb57600080fd5b506105f46116d5565b6040518082815260200191505060405180910390f35b34801561061657600080fd5b5061061f6116db565b604051808260ff1660ff16815260200191505060405180910390f35b34801561064757600080fd5b506106506116e0565b604051808273ffffffffffffffffffffffffffffffffffffffff1673ffffffffffffffffffffffffffffffffffffffff16815260200191505060405180910390f35b34801561069e57600080fd5b506106dd600480360381019080803573ffffffffffffffffffffffffffffffffffffffff16906020019092919080359060200190929190505050611706565b005b3480156106eb57600080fd5b5061070a600480360381019080803590602001909291905050506119b6565b604051808273ffffffffffffffffffffffffffffffffffffffff1673ffffffffffffffffffffffffffffffffffffffff16815260200191505060405180910390f35b34801561075857600080fd5b5061078d600480360381019080803573ffffffffffffffffffffffffffffffffffffffff1690602001909291905050506119f4565b005b34801561079b57600080fd5b506107a4611d4d565b604051808273ffffffffffffffffffffffffffffffffffffffff1673ffffffffffffffffffffffffffffffffffffffff16815260200191505060405180910390f35b61081a600480360381019080803573ffffffffffffffffffffffffffffffffffffffff169060200190929190505050610967565b005b34801561082857600080fd5b50610831611d73565b604051808215151515815260200191505060405180910390f35b34801561085757600080fd5b5061088c600480360381019080803573ffffffffffffffffffffffffffffffffffffffff169060200190929190505050611d7f565b005b34801561089a57600080fd5b506108a3611e1f565b604051808273ffffffffffffffffffffffffffffffffffffffff1673ffffffffffffffffffffffffffffffffffffffff16815260200191505060405180910390f35b3480156108f157600080fd5b506108fa611e45565b604051808273ffffffffffffffffffffffffffffffffffffffff1673ffffffffffffffffffffffffffffffffffffffff16815260200191505060405180910390f35b34801561094857600080fd5b50610951611e6a565b6040518082815260200191505060405180910390f35b600080600073ffffffffffffffffffffffffffffffffffffffff168373ffffffffffffffffffffffffffffffffffffffff16141515156109a657600080fd5b6109ae611e6f565b15156109b957600080fd5b3491506109d66109c761113a565b83611ea290919063ffffffff16565b90506109ed82600554611ed590919063ffffffff16565b6005819055506000809054906101000a900473ffffffffffffffffffffffffffffffffffffffff1673ffffffffffffffffffffffffffffffffffffffff1663867904b484836040518363ffffffff167c0100000000000000000000000000000000000000000000000000000000028152600401808373ffffffffffffffffffffffffffffffffffffffff1673ffffffffffffffffffffffffffffffffffffffff16815260200182815260200192505050600060405180830381600087803b158015610ab757600080fd5b505af1158015610acb573d6000803e3d6000fd5b505050508273ffffffffffffffffffffffffffffffffffffffff163373ffffffffffffffffffffffffffffffffffffffff167f623b3804fa71d67900d064613da8f94b9617215ee90799290593e1745087ad188484604051808381526020018281526020019250505060405180910390a3610b44611ef3565b505050565b6000610b62600554600c54611ed590919063ffffffff16565b905090565b600660009054906101000a900473ffffffffffffffffffffffffffffffffffffffff1673ffffffffffffffffffffffffffffffffffffffff163373ffffffffffffffffffffffffffffffffffffffff16141515610bc357600080fd5b6000809054906101000a900473ffffffffffffffffffffffffffffffffffffffff1673ffffffffffffffffffffffffffffffffffffffff16634e71e0c86040518163ffffffff167c0100000000000000000000000000000000000000000000000000000000028152600401600060405180830381600087803b158015610c4857600080fd5b505af1158015610c5c573d6000803e3d6000fd5b50505050565b600f60009054906101000a900473ffffffffffffffffffffffffffffffffffffffff1681565b6101f481565b60006001544210158015610ca3575060025442105b905090565b60045481565b600e6020528060005260406000206000915090505481565b60025481565b60055481565b600660009054906101000a900473ffffffffffffffffffffffffffffffffffffffff1673ffffffffffffffffffffffffffffffffffffffff163373ffffffffffffffffffffffffffffffffffffffff16141515610d2e57600080fd5b600760149054906101000a900460ff16151515610d4a57600080fd5b610d52611d73565b1515610d5d57600080fd5b610d65611f5e565b7f6823b073d48d6e3a7d385eeb601452d680e74bb46afe3255a7d778f3a9b1768160405160405180910390a16001600760146101000a81548160ff021916908315150217905550565b600760009054906101000a900473ffffffffffffffffffffffffffffffffffffffff1673ffffffffffffffffffffffffffffffffffffffff163373ffffffffffffffffffffffffffffffffffffffff16141515610e0a57600080fd5b600760009054906101000a900473ffffffffffffffffffffffffffffffffffffffff1673ffffffffffffffffffffffffffffffffffffffff16600660009054906101000a900473ffffffffffffffffffffffffffffffffffffffff1673ffffffffffffffffffffffffffffffffffffffff167f8be0079c531659141344cd1fd0a4f28419497f9722a3daafe3b4186f6b6457e060405160405180910390a3600760009054906101000a900473ffffffffffffffffffffffffffffffffffffffff16600660006101000a81548173ffffffffffffffffffffffffffffffffffffffff021916908373ffffffffffffffffffffffffffffffffffffffff1602179055506000600760006101000a81548173ffffffffffffffffffffffffffffffffffffffff021916908373ffffffffffffffffffffffffffffffffffffffff160217905550565b600660009054906101000a900473ffffffffffffffffffffffffffffffffffffffff1673ffffffffffffffffffffffffffffffffffffffff163373ffffffffffffffffffffffffffffffffffffffff16141515610fab57600080fd5b600f60009054906101000a900473ffffffffffffffffffffffffffffffffffffffff1673ffffffffffffffffffffffffffffffffffffffff16634e71e0c86040518163ffffffff167c0100000000000000000000000000000000000000000000000000000000028152600401600060405180830381600087803b15801561103157600080fd5b505af1158015611045573d6000803e3d6000fd5b50505050565b600360009054906101000a900473ffffffffffffffffffffffffffffffffffffffff1681565b600660009054906101000a900473ffffffffffffffffffffffffffffffffffffffff1673ffffffffffffffffffffffffffffffffffffffff163373ffffffffffffffffffffffffffffffffffffffff161415156110cd57600080fd5b6110d5610c8e565b15156110e057600080fd5b80600c819055503373ffffffffffffffffffffffffffffffffffffffff167fdf15f87e807c67c55ac392979576e7ab6908c4d3987601ebf5cf328bbec88dc4600c546040518082815260200191505060405180910390a250565b600061115462015180600154611ed590919063ffffffff16565b4210156111645760649050611372565b61117c6202a300600154611ed590919063ffffffff16565b42101561118c57605f9050611372565b6111a46203f480600154611ed590919063ffffffff16565b4210156111b457605a9050611372565b6111cc62054600600154611ed590919063ffffffff16565b4210156111dc5760559050611372565b6111f462069780600154611ed590919063ffffffff16565b4210156112045760509050611372565b61121c6207e900600154611ed590919063ffffffff16565b42101561122c57604b9050611372565b61124462093a80600154611ed590919063ffffffff16565b4210156112545760469050611372565b61126c620a8c00600154611ed590919063ffffffff16565b42101561127c5760419050611372565b611294620bdd80600154611ed590919063ffffffff16565b4210156112a457603c9050611372565b6112bc620d2f00600154611ed590919063ffffffff16565b4210156112cc5760379050611372565b6112e4620e8080600154611ed590919063ffffffff16565b4210156112f45760329050611372565b61130c620fd200600154611ed590919063ffffffff16565b42101561131c57602d9050611372565b61133462112380600154611ed590919063ffffffff16565b4210156113445760289050611372565b61135c62127500600154611ed590919063ffffffff16565b42101561136c5760239050611372565b60045490505b90565b600860009054906101000a900473ffffffffffffffffffffffffffffffffffffffff1681565b600b60009054906101000a900473ffffffffffffffffffffffffffffffffffffffff1681565b60015481565b6000806113d2611e6f565b15156113dd57600080fd5b3491506113fa6113eb61113a565b83611ea290919063ffffffff16565b9050611410600282612ad290919063ffffffff16565b905061142782600554611ed590919063ffffffff16565b6005819055506000809054906101000a900473ffffffffffffffffffffffffffffffffffffffff1673ffffffffffffffffffffffffffffffffffffffff1663867904b4600f60009054906101000a900473ffffffffffffffffffffffffffffffffffffffff16836040518363ffffffff167c0100000000000000000000000000000000000000000000000000000000028152600401808373ffffffffffffffffffffffffffffffffffffffff1673ffffffffffffffffffffffffffffffffffffffff16815260200182815260200192505050600060405180830381600087803b15801561151357600080fd5b505af1158015611527573d6000803e3d6000fd5b50505050600f60009054906101000a900473ffffffffffffffffffffffffffffffffffffffff1673ffffffffffffffffffffffffffffffffffffffff166347e7ef243433846040518463ffffffff167c0100000000000000000000000000000000000000000000000000000000028152600401808373ffffffffffffffffffffffffffffffffffffffff1673ffffffffffffffffffffffffffffffffffffffff168152602001828152602001925050506000604051808303818588803b1580156115f057600080fd5b505af1158015611604573d6000803e3d6000fd5b5050505050600f60009054906101000a900473ffffffffffffffffffffffffffffffffffffffff1673ffffffffffffffffffffffffffffffffffffffff163373ffffffffffffffffffffffffffffffffffffffff167ffaa5e74a9ff37772660d8f2a92569a483453a78363e6d62dc6e098f7d1d86d788484604051808381526020018281526020019250505060405180910390a35050565b600760149054906101000a900460ff1681565b600660009054906101000a900473ffffffffffffffffffffffffffffffffffffffff1681565b600c5481565b600a81565b600a60009054906101000a900473ffffffffffffffffffffffffffffffffffffffff1681565b600660009054906101000a900473ffffffffffffffffffffffffffffffffffffffff1673ffffffffffffffffffffffffffffffffffffffff163373ffffffffffffffffffffffffffffffffffffffff1614151561176257600080fd5b61176a610c8e565b151561177557600080fd5b600073ffffffffffffffffffffffffffffffffffffffff168273ffffffffffffffffffffffffffffffffffffffff16141515156117b157600080fd5b6000811115156117c057600080fd5b6000600e60008473ffffffffffffffffffffffffffffffffffffffff1673ffffffffffffffffffffffffffffffffffffffff1681526020019081526020016000205414156118d857600a60ff16600d8054905010151561181f57600080fd5b600d8290806001815401808255809150509060018203906000526020600020016000909192909190916101000a81548173ffffffffffffffffffffffffffffffffffffffff021916908373ffffffffffffffffffffffffffffffffffffffff160217905550508173ffffffffffffffffffffffffffffffffffffffff167f9d2a1eab91557a277ec725fe26546609d5a33a550c3f3476982ee177252be8f4826040518082815260200191505060405180910390a261196e565b8173ffffffffffffffffffffffffffffffffffffffff167f8a53360fe59670cc3e4f0c013e90b4fd2f196cbce9dd3d98187d6050f87a19eb600e60008573ffffffffffffffffffffffffffffffffffffffff1673ffffffffffffffffffffffffffffffffffffffff1681526020019081526020016000205483604051808381526020018281526020019250505060405180910390a25b80600e60008473ffffffffffffffffffffffffffffffffffffffff1673ffffffffffffffffffffffffffffffffffffffff168152602001908152602001600020819055505050565b600d818154811015156119c557fe5b906000526020600020016000915054906101000a900473ffffffffffffffffffffffffffffffffffffffff1681565b600080600660009054906101000a900473ffffffffffffffffffffffffffffffffffffffff1673ffffffffffffffffffffffffffffffffffffffff163373ffffffffffffffffffffffffffffffffffffffff16141515611a5357600080fd5b611a5b610c8e565b1515611a6657600080fd5b600073ffffffffffffffffffffffffffffffffffffffff168373ffffffffffffffffffffffffffffffffffffffff1614151515611aa257600080fd5b6000600e60008573ffffffffffffffffffffffffffffffffffffffff1673ffffffffffffffffffffffffffffffffffffffff1681526020019081526020016000205414151515611af157600080fd5b600e60008473ffffffffffffffffffffffffffffffffffffffff1673ffffffffffffffffffffffffffffffffffffffff16815260200190815260200160002060009055600090505b600d80549050811015611bc8578273ffffffffffffffffffffffffffffffffffffffff16600d82815481101515611b6c57fe5b9060005260206000200160009054906101000a900473ffffffffffffffffffffffffffffffffffffffff1673ffffffffffffffffffffffffffffffffffffffff161415611bbb57809150611bc8565b8080600101915050611b39565b600d6001600d8054905003815481101515611bdf57fe5b9060005260206000200160009054906101000a900473ffffffffffffffffffffffffffffffffffffffff16600d83815481101515611c1957fe5b9060005260206000200160006101000a81548173ffffffffffffffffffffffffffffffffffffffff021916908373ffffffffffffffffffffffffffffffffffffffff160217905550600d6001600d8054905003815481101515611c7857fe5b9060005260206000200160006101000a81549073ffffffffffffffffffffffffffffffffffffffff0219169055600d805480919060019003611cba9190612aef565b508273ffffffffffffffffffffffffffffffffffffffff167f8db49b57ab5d98b4913c9d04362b8b03a4dc70cf95f9ff93572c8f17e0a635a7600e60008673ffffffffffffffffffffffffffffffffffffffff1673ffffffffffffffffffffffffffffffffffffffff168152602001908152602001600020546040518082815260200191505060405180910390a2505050565b600760009054906101000a900473ffffffffffffffffffffffffffffffffffffffff1681565b60006002544211905090565b600660009054906101000a900473ffffffffffffffffffffffffffffffffffffffff1673ffffffffffffffffffffffffffffffffffffffff163373ffffffffffffffffffffffffffffffffffffffff16141515611ddb57600080fd5b80600760006101000a81548173ffffffffffffffffffffffffffffffffffffffff021916908373ffffffffffffffffffffffffffffffffffffffff16021790555050565b600960009054906101000a900473ffffffffffffffffffffffffffffffffffffffff1681565b6000809054906101000a900473ffffffffffffffffffffffffffffffffffffffff1681565b600281565b60008060006001544210158015611e8857506002544211155b915060003414159050818015611e9b5750805b9250505090565b60008082840290506000841480611ec35750828482811515611ec057fe5b04145b1515611ecb57fe5b8091505092915050565b6000808284019050838110151515611ee957fe5b8091505092915050565b600360009054906101000a900473ffffffffffffffffffffffffffffffffffffffff1673ffffffffffffffffffffffffffffffffffffffff166108fc349081150290604051600060405180830381858888f19350505050158015611f5b573d6000803e3d6000fd5b50565b600080600660009054906101000a900473ffffffffffffffffffffffffffffffffffffffff1673ffffffffffffffffffffffffffffffffffffffff163373ffffffffffffffffffffffffffffffffffffffff16141515611fbd57600080fd5b611fc5612aed565b600091505b600d80549050821015612171576000809054906101000a900473ffffffffffffffffffffffffffffffffffffffff1673ffffffffffffffffffffffffffffffffffffffff1663867904b4600d8481548110151561202357fe5b9060005260206000200160009054906101000a900473ffffffffffffffffffffffffffffffffffffffff16600e6000600d8781548110151561206157fe5b9060005260206000200160009054906101000a900473ffffffffffffffffffffffffffffffffffffffff1673ffffffffffffffffffffffffffffffffffffffff1673ffffffffffffffffffffffffffffffffffffffff168152602001908152602001600020546040518363ffffffff167c0100000000000000000000000000000000000000000000000000000000028152600401808373ffffffffffffffffffffffffffffffffffffffff1673ffffffffffffffffffffffffffffffffffffffff16815260200182815260200192505050600060405180830381600087803b15801561214c57600080fd5b505af1158015612160573d6000803e3d6000fd5b505050508180600101925050611fca565b612257606461224960fa6000809054906101000a900473ffffffffffffffffffffffffffffffffffffffff1673ffffffffffffffffffffffffffffffffffffffff166318160ddd6040518163ffffffff167c0100000000000000000000000000000000000000000000000000000000028152600401602060405180830381600087803b15801561220057600080fd5b505af1158015612214573d6000803e3d6000fd5b505050506040513d602081101561222a57600080fd5b8101908080519060200190929190505050611ea290919063ffffffff16565b612ad290919063ffffffff16565b90506000809054906101000a900473ffffffffffffffffffffffffffffffffffffffff1673ffffffffffffffffffffffffffffffffffffffff1663867904b4600860009054906101000a900473ffffffffffffffffffffffffffffffffffffffff166122e060646122d2600a87611ea290919063ffffffff16565b612ad290919063ffffffff16565b6040518363ffffffff167c0100000000000000000000000000000000000000000000000000000000028152600401808373ffffffffffffffffffffffffffffffffffffffff1673ffffffffffffffffffffffffffffffffffffffff16815260200182815260200192505050600060405180830381600087803b15801561236557600080fd5b505af1158015612379573d6000803e3d6000fd5b505050506000809054906101000a900473ffffffffffffffffffffffffffffffffffffffff1673ffffffffffffffffffffffffffffffffffffffff1663867904b4600960009054906101000a900473ffffffffffffffffffffffffffffffffffffffff1661240460646123f6600a87611ea290919063ffffffff16565b612ad290919063ffffffff16565b6040518363ffffffff167c0100000000000000000000000000000000000000000000000000000000028152600401808373ffffffffffffffffffffffffffffffffffffffff1673ffffffffffffffffffffffffffffffffffffffff16815260200182815260200192505050600060405180830381600087803b15801561248957600080fd5b505af115801561249d573d6000803e3d6000fd5b505050506000809054906101000a900473ffffffffffffffffffffffffffffffffffffffff1673ffffffffffffffffffffffffffffffffffffffff1663867904b4600a60009054906101000a900473ffffffffffffffffffffffffffffffffffffffff16612528606461251a600587611ea290919063ffffffff16565b612ad290919063ffffffff16565b6040518363ffffffff167c0100000000000000000000000000000000000000000000000000000000028152600401808373ffffffffffffffffffffffffffffffffffffffff1673ffffffffffffffffffffffffffffffffffffffff16815260200182815260200192505050600060405180830381600087803b1580156125ad57600080fd5b505af11580156125c1573d6000803e3d6000fd5b505050506000809054906101000a900473ffffffffffffffffffffffffffffffffffffffff1673ffffffffffffffffffffffffffffffffffffffff1663867904b4600b60009054906101000a900473ffffffffffffffffffffffffffffffffffffffff1661264c606461263e602387611ea290919063ffffffff16565b612ad290919063ffffffff16565b6040518363ffffffff167c0100000000000000000000000000000000000000000000000000000000028152600401808373ffffffffffffffffffffffffffffffffffffffff1673ffffffffffffffffffffffffffffffffffffffff16815260200182815260200192505050600060405180830381600087803b1580156126d157600080fd5b505af11580156126e5573d6000803e3d6000fd5b505050506000809054906101000a900473ffffffffffffffffffffffffffffffffffffffff1673ffffffffffffffffffffffffffffffffffffffff16631608f18f60006040518263ffffffff167c01000000000000000000000000000000000000000000000000000000000281526004018082151515158152602001915050600060405180830381600087803b15801561277e57600080fd5b505af1158015612792573d6000803e3d6000fd5b505050506000809054906101000a900473ffffffffffffffffffffffffffffffffffffffff1673ffffffffffffffffffffffffffffffffffffffff16635005ba4760016040518263ffffffff167c01000000000000000000000000000000000000000000000000000000000281526004018082151515158152602001915050600060405180830381600087803b15801561282b57600080fd5b505af115801561283f573d6000803e3d6000fd5b50505050600f60009054906101000a900473ffffffffffffffffffffffffffffffffffffffff1673ffffffffffffffffffffffffffffffffffffffff16638c52dc416040518163ffffffff167c0100000000000000000000000000000000000000000000000000000000028152600401600060405180830381600087803b1580156128c957600080fd5b505af11580156128dd573d6000803e3d6000fd5b505050506000809054906101000a900473ffffffffffffffffffffffffffffffffffffffff1673ffffffffffffffffffffffffffffffffffffffff1663f2fde38b600660009054906101000a900473ffffffffffffffffffffffffffffffffffffffff166040518263ffffffff167c0100000000000000000000000000000000000000000000000000000000028152600401808273ffffffffffffffffffffffffffffffffffffffff1673ffffffffffffffffffffffffffffffffffffffff168152602001915050600060405180830381600087803b1580156129bf57600080fd5b505af11580156129d3573d6000803e3d6000fd5b50505050600f60009054906101000a900473ffffffffffffffffffffffffffffffffffffffff1673ffffffffffffffffffffffffffffffffffffffff1663f2fde38b600660009054906101000a900473ffffffffffffffffffffffffffffffffffffffff166040518263ffffffff167c0100000000000000000000000000000000000000000000000000000000028152600401808273ffffffffffffffffffffffffffffffffffffffff1673ffffffffffffffffffffffffffffffffffffffff168152602001915050600060405180830381600087803b158015612ab657600080fd5b505af1158015612aca573d6000803e3d6000fd5b505050505050565b6000808284811515612ae057fe5b0490508091505092915050565b565b815481835581811115612b1657818360005260206000209182019101612b159190612b1b565b5b505050565b612b3d91905b80821115612b39576000816000905550600101612b21565b5090565b905600a165627a7a72305820a1f664aa470e0396de1d68830996bf541f15727d479e9b4a84fa6ae821ccf16c0029",
  "source": "pragma solidity ^0.4.23;\n\n\nimport './crowdsale/RefundVault.sol';\nimport './crowdsale/FinalizableCrowdsale.sol';\nimport './math/SafeMath.sol';\nimport './IPSSmartToken.sol'; \n\n\ncontract IPSCrowdsale is FinalizableCrowdsale {\n\n    // ----------------------------------------------------------------------------------------------------\n    //                                      Constants\n    // ----------------------------------------------------------------------------------------------------\n    // Max amount of known addresses of which will get IPS by 'Grant' method.\n    //\n    // grantees addresses will be IPS wallets addresses.\n    // these wallets will contain IPS tokens that will be used for 2 purposes only -\n    // 1. IPS tokens against raised fiat money\n    // 2. IPS tokens for presale bonus.\n    // we set the value to 10 (and not to 2) because we want to allow some flexibility for cases like fiat money that is raised close to the crowdsale.\n    // we limit the value to 10 (and not larger) to limit the run time of the function that process the grantees array.\n    uint8 public constant MAX_TOKEN_GRANTEES = 10;\n\n    // IPS to ETH base rate\n    uint256 public constant EXCHANGE_RATE = 500;\n\n    // Refund division rate\n    uint256 public constant REFUND_DIVISION_RATE = 2;\n\n    // ----------------------------------------------------------------------------------------------------\n    //                                      Modifiers\n    // ----------------------------------------------------------------------------------------------------\n\n    /**\n     * @dev Throws if called not during the crowdsale time frame\n     */\n    modifier onlyWhileSale() {\n        require(isActive());\n        _;\n    }\n\n    // ----------------------------------------------------------------------------------------------------\n    //                                      Members\n    // ----------------------------------------------------------------------------------------------------\n\n    // wallets address for 60% of IPS allocation\n    address public walletTeam;   //10% of the total number of IPS tokens will be allocated to the team\n    address public walletOEM;       //10% of the total number of IPS tokens will be allocated to OEMs, Operating System implementation, SDK developers \n    address public walletBounties;  //5% of the total number of IPS tokens will be allocated to professional fees and Bounties\n    address public walletReserve;   //35% of the total number of IPS tokens will be allocated to IPS.DATA and as a reserve for the company to be used for future strategic plans for the created ecosystem\n\n    // Funds collected outside the crowdsale in wei\n    uint256 public fiatRaisedConvertedToWei;\n\n    //Grantees - used for non-ether and presale bonus token generation\n    address[] public presaleGranteesMapKeys;\n    mapping (address => uint256) public presaleGranteesMap;  //address=>wei token amount\n\n    // The refund vault\n    RefundVault public refundVault;\n\n    // ----------------------------------------------------------------------------------------------------\n    //                                      Events\n    // ----------------------------------------------------------------------------------------------------\n    event GrantAdded(address indexed _grantee, uint256 _amount);\n\n    event GrantUpdated(address indexed _grantee, uint256 _oldAmount, uint256 _newAmount);\n\n    event GrantDeleted(address indexed _grantee, uint256 _hadAmount);\n\n    event FiatRaisedUpdated(address indexed _address, uint256 _fiatRaised);\n\n    event TokenPurchaseWithGuarantee(address indexed purchaser, address indexed beneficiary, uint256 value, uint256 amount);\n\n    // ----------------------------------------------------------------------------------------------------\n    //                                      Constructors\n    // ----------------------------------------------------------------------------------------------------\n\n    function IPSCrowdsale(uint256 _startTime,\n    uint256 _endTime,\n    address _wallet,\n    address _walletTeam,\n    address _walletOEM,\n    address _walletBounties,\n    address _walletReserve,\n    IPSSmartToken _ipsSmartToken,\n    RefundVault _refundVault)\n    public\n    Crowdsale(_startTime, _endTime, EXCHANGE_RATE, _wallet, _ipsSmartToken) {\n        require(_walletTeam != address(0));\n        require(_walletOEM != address(0));\n        require(_walletBounties != address(0));\n        require(_walletReserve != address(0));\n        require(_ipsSmartToken != address(0));\n        require(_refundVault != address(0));\n\n        walletTeam = _walletTeam;\n        walletOEM = _walletOEM;\n        walletBounties = _walletBounties;\n        walletReserve = _walletReserve;\n\n        token = _ipsSmartToken;\n        refundVault  = _refundVault;\n    }\n\n    // ----------------------------------------------------------------------------------------------------\n    //                                      Impl Crowdsale\n    // ----------------------------------------------------------------------------------------------------\n\n    // @return the rate in IPS per 1 ETH according to the time of the tx and the IPS.data pricing program.\n    // @Override\n    function getRate() public view returns (uint256) {\n        if (now < (startTime.add(24 hours))) {return 100;} // 24-hours\n        if (now < (startTime.add(2 days))) {return 95;}    // 2 day\n        if (now < (startTime.add(3 days))) {return 90;}    // 3 day\n        if (now < (startTime.add(4 days))) {return 85;}    // 4 day\n        if (now < (startTime.add(5 days))) {return 80;}    // 5 day\n        if (now < (startTime.add(6 days))) {return 75;}    // 6 day\n        if (now < (startTime.add(7 days))) {return 70;}    // 7 day\n        if (now < (startTime.add(8 days))) {return 65;}    // 8 day\n        if (now < (startTime.add(9 days))) {return 60;}    // 9 day\n        if (now < (startTime.add(10 days))) {return 55;}   // 10 day\n        if (now < (startTime.add(11 days))) {return 50;}   // 11 day\n        if (now < (startTime.add(12 days))) {return 45;}   // 12 day\n        if (now < (startTime.add(13 days))) {return 40;}   // 13 day\n        if (now < (startTime.add(14 days))) {return 35;}   // 13 day\n        return rate;\n    }\n\n    // ----------------------------------------------------------------------------------------------------\n    //                                      Impl FinalizableCrowdsale\n    // ----------------------------------------------------------------------------------------------------\n\n    //@Override\n    function finalization() internal onlyOwner {\n        super.finalization();\n\n        // granting bonuses for the pre crowdsale grantees:\n        for (uint256 i = 0; i < presaleGranteesMapKeys.length; i++) {\n            token.issue(presaleGranteesMapKeys[i], presaleGranteesMap[presaleGranteesMapKeys[i]]);\n        }\n\n        // Adding 60% of the total token supply (40% were generated during the crowdsale)\n        // 40 * 2.5 = 100\n        uint256 newTotalSupply = token.totalSupply().mul(250).div(100);\n\n        // 10% of the total number of IPS tokens will be allocated to the team\n        token.issue(walletTeam, newTotalSupply.mul(10).div(100));\n\n        // 10% of the total number of IPS tokens will be allocated to OEMs, Operating System implementation,\n        // SDK developers \n        token.issue(walletOEM, newTotalSupply.mul(10).div(100));\n\n        // 5% of the total number of IPS tokens will be allocated to professional fees and Bounties\n        token.issue(walletBounties, newTotalSupply.mul(5).div(100));\n\n        // 35% of the total number of IPS tokens will be allocated to APSDATA LABS,\n        // and as a reserve for the company to be used for future strategic plans for the created ecosystem\n        token.issue(walletReserve, newTotalSupply.mul(35).div(100));\n\n        // Re-enable transfers after the token sale.\n        token.disableTransfers(false);\n\n        // Re-enable destroy function after the token sale.\n        token.setDestroyEnabled(true);\n\n        // Enable ETH refunds and token claim.\n        refundVault.enableRefunds();\n\n        // transfer token ownership to crowdsale owner\n        token.transferOwnership(owner);\n\n        // transfer refundVault ownership to crowdsale owner\n        refundVault.transferOwnership(owner);\n    }\n\n    // =================================================================================================================\n    //                                      Public Methods\n    // =================================================================================================================\n    // @return the total funds collected in wei(ETH and none ETH).\n    function getTotalFundsRaised() public view returns (uint256) {\n        return fiatRaisedConvertedToWei.add(weiRaised);\n    }\n\n    // @return true if the crowdsale is active, hence users can buy tokens\n    function isActive() public view returns (bool) {\n        return now >= startTime && now < endTime;\n    }\n\n    // =================================================================================================================\n    //                                      External Methods\n    // =================================================================================================================\n    // @dev Adds/Updates address and token allocation for token grants.\n    // Granted tokens are allocated to non-ether, presale, buyers.\n    // @param _grantee address The address of the token grantee.\n    // @param _value uint256 The value of the grant in wei token.\n    function addUpdateGrantee(address _grantee, uint256 _value) external onlyOwner onlyWhileSale{\n        require(_grantee != address(0));\n        require(_value > 0);\n\n        // Adding new key if not present:\n        if (presaleGranteesMap[_grantee] == 0) {\n            require(presaleGranteesMapKeys.length < MAX_TOKEN_GRANTEES);\n            presaleGranteesMapKeys.push(_grantee);\n            GrantAdded(_grantee, _value);\n        }\n        else {\n            GrantUpdated(_grantee, presaleGranteesMap[_grantee], _value);\n        }\n\n        presaleGranteesMap[_grantee] = _value;\n    }\n\n    // @dev deletes entries from the grants list.\n    // @param _grantee address The address of the token grantee.\n    function deleteGrantee(address _grantee) external onlyOwner onlyWhileSale {\n        require(_grantee != address(0));\n        require(presaleGranteesMap[_grantee] != 0);\n\n        //delete from the map:\n        delete presaleGranteesMap[_grantee];\n\n        //delete from the array (keys):\n        uint256 index;\n        for (uint256 i = 0; i < presaleGranteesMapKeys.length; i++) {\n            if (presaleGranteesMapKeys[i] == _grantee) {\n                index = i;\n                break;\n            }\n        }\n        presaleGranteesMapKeys[index] = presaleGranteesMapKeys[presaleGranteesMapKeys.length - 1];\n        delete presaleGranteesMapKeys[presaleGranteesMapKeys.length - 1];\n        presaleGranteesMapKeys.length--;\n\n        GrantDeleted(_grantee, presaleGranteesMap[_grantee]);\n    }\n\n    // @dev Set funds collected outside the crowdsale in wei.\n    //  note: we not to use accumulator to allow flexibility in case of humane mistakes.\n    // funds are converted to wei using the market conversion rate of USD\\ETH on the day on the purchase.\n    // @param _fiatRaisedConvertedToWei number of none eth raised.\n    function setFiatRaisedConvertedToWei(uint256 _fiatRaisedConvertedToWei) external onlyOwner onlyWhileSale {\n        fiatRaisedConvertedToWei = _fiatRaisedConvertedToWei;\n        FiatRaisedUpdated(msg.sender, fiatRaisedConvertedToWei);\n    }\n\n    /// @dev Accepts new ownership on behalf of the IPSCrowdsale contract. This can be used, by the token sale\n    /// contract itself to claim back ownership of the IPSSmartToken contract.\n    function claimTokenOwnership() external onlyOwner {\n        token.claimOwnership();\n    }\n\n    /// @dev Accepts new ownership on behalf of the IPSCrowdsale contract. This can be used, by the token sale\n    /// contract itself to claim back ownership of the refundVault contract.\n    function claimRefundVaultOwnership() external onlyOwner {\n        refundVault.claimOwnership();\n    }\n\n    // @dev Buy tokes with guarantee\n    function buyTokensWithGuarantee() public payable {\n        require(validPurchase());\n\n        uint256 weiAmount = msg.value;\n\n        // calculate token amount to be created\n        uint256 tokens = weiAmount.mul(getRate());\n        tokens = tokens.div(REFUND_DIVISION_RATE);\n\n        // update state\n        weiRaised = weiRaised.add(weiAmount);\n\n        token.issue(address(refundVault), tokens);\n\n        refundVault.deposit.value(msg.value)(msg.sender, tokens);\n\n        TokenPurchaseWithGuarantee(msg.sender, address(refundVault), weiAmount, tokens);\n    }\n}\n",
  "sourcePath": "C:\\smart+pj\\IPS-Develop\\contracts\\IPSCrowdsale.sol",
  "compiler": {
    "name": "solc",
    "version": "0.4.23+commit.124ca40d.Emscripten.clang"
  },
  "schemaVersion": "2.0.0",
  "updatedAt": "2018-05-09T15:14:24.524Z"
}