{
  "contractName": "IPSVestingTrustee",
  "abi": [
    {
      "constant": false,
      "inputs": [],
      "name": "claimOwnership",
      "outputs": [],
      "payable": false,
      "stateMutability": "nonpayable",
      "type": "function"
    },
    {
      "constant": true,
      "inputs": [],
      "name": "totalVesting",
      "outputs": [
        {
          "name": "",
          "type": "uint256"
        }
      ],
      "payable": false,
      "stateMutability": "view",
      "type": "function"
    },
    {
      "constant": true,
      "inputs": [],
      "name": "owner",
      "outputs": [
        {
          "name": "",
          "type": "address"
        }
      ],
      "payable": false,
      "stateMutability": "view",
      "type": "function"
    },
    {
      "constant": true,
      "inputs": [
        {
          "name": "",
          "type": "address"
        }
      ],
      "name": "grants",
      "outputs": [
        {
          "name": "value",
          "type": "uint256"
        },
        {
          "name": "start",
          "type": "uint256"
        },
        {
          "name": "cliff",
          "type": "uint256"
        },
        {
          "name": "end",
          "type": "uint256"
        },
        {
          "name": "transferred",
          "type": "uint256"
        },
        {
          "name": "revokable",
          "type": "bool"
        }
      ],
      "payable": false,
      "stateMutability": "view",
      "type": "function"
    },
    {
      "constant": true,
      "inputs": [],
      "name": "pendingOwner",
      "outputs": [
        {
          "name": "",
          "type": "address"
        }
      ],
      "payable": false,
      "stateMutability": "view",
      "type": "function"
    },
    {
      "constant": false,
      "inputs": [
        {
          "name": "newOwner",
          "type": "address"
        }
      ],
      "name": "transferOwnership",
      "outputs": [],
      "payable": false,
      "stateMutability": "nonpayable",
      "type": "function"
    },
    {
      "constant": true,
      "inputs": [],
      "name": "token",
      "outputs": [
        {
          "name": "",
          "type": "address"
        }
      ],
      "payable": false,
      "stateMutability": "view",
      "type": "function"
    },
    {
      "inputs": [
        {
          "name": "_token",
          "type": "address"
        }
      ],
      "payable": false,
      "stateMutability": "nonpayable",
      "type": "constructor"
    },
    {
      "anonymous": false,
      "inputs": [
        {
          "indexed": true,
          "name": "_from",
          "type": "address"
        },
        {
          "indexed": true,
          "name": "_to",
          "type": "address"
        },
        {
          "indexed": false,
          "name": "_value",
          "type": "uint256"
        }
      ],
      "name": "NewGrant",
      "type": "event"
    },
    {
      "anonymous": false,
      "inputs": [
        {
          "indexed": true,
          "name": "_holder",
          "type": "address"
        },
        {
          "indexed": false,
          "name": "_value",
          "type": "uint256"
        }
      ],
      "name": "UnlockGrant",
      "type": "event"
    },
    {
      "anonymous": false,
      "inputs": [
        {
          "indexed": true,
          "name": "_holder",
          "type": "address"
        },
        {
          "indexed": false,
          "name": "_refund",
          "type": "uint256"
        }
      ],
      "name": "RevokeGrant",
      "type": "event"
    },
    {
      "anonymous": false,
      "inputs": [
        {
          "indexed": true,
          "name": "previousOwner",
          "type": "address"
        },
        {
          "indexed": true,
          "name": "newOwner",
          "type": "address"
        }
      ],
      "name": "OwnershipTransferred",
      "type": "event"
    },
    {
      "constant": false,
      "inputs": [
        {
          "name": "_to",
          "type": "address"
        },
        {
          "name": "_value",
          "type": "uint256"
        },
        {
          "name": "_start",
          "type": "uint256"
        },
        {
          "name": "_cliff",
          "type": "uint256"
        },
        {
          "name": "_end",
          "type": "uint256"
        },
        {
          "name": "_revokable",
          "type": "bool"
        }
      ],
      "name": "grant",
      "outputs": [],
      "payable": false,
      "stateMutability": "nonpayable",
      "type": "function"
    },
    {
      "constant": false,
      "inputs": [
        {
          "name": "_holder",
          "type": "address"
        }
      ],
      "name": "revoke",
      "outputs": [],
      "payable": false,
      "stateMutability": "nonpayable",
      "type": "function"
    },
    {
      "constant": true,
      "inputs": [
        {
          "name": "_holder",
          "type": "address"
        },
        {
          "name": "_time",
          "type": "uint256"
        }
      ],
      "name": "vestedTokens",
      "outputs": [
        {
          "name": "",
          "type": "uint256"
        }
      ],
      "payable": false,
      "stateMutability": "view",
      "type": "function"
    },
    {
      "constant": false,
      "inputs": [],
      "name": "unlockVestedTokens",
      "outputs": [],
      "payable": false,
      "stateMutability": "nonpayable",
      "type": "function"
    }
  ],
  "bytecode": "0x608060405234801561001057600080fd5b506040516020806112b883398101806040528101908080519060200190929190505050336000806101000a81548173ffffffffffffffffffffffffffffffffffffffff021916908373ffffffffffffffffffffffffffffffffffffffff160217905550600073ffffffffffffffffffffffffffffffffffffffff168173ffffffffffffffffffffffffffffffffffffffff16141515156100af57600080fd5b80600260006101000a81548173ffffffffffffffffffffffffffffffffffffffff021916908373ffffffffffffffffffffffffffffffffffffffff160217905550506111b8806101006000396000f3006080604052600436106100af576000357c0100000000000000000000000000000000000000000000000000000000900463ffffffff1680631a64adae146100b45780634e71e0c8146101155780635ee7e96d1461012c57806374a8f103146101a35780637c17357d146101e657806383fcf973146102115780638da5cb5b14610228578063b869cea31461027f578063e30c3978146102fd578063f2fde38b14610354578063fc0c546a14610397575b600080fd5b3480156100c057600080fd5b506100ff600480360381019080803573ffffffffffffffffffffffffffffffffffffffff169060200190929190803590602001909291905050506103ee565b6040518082815260200191505060405180910390f35b34801561012157600080fd5b5061012a6104b5565b005b34801561013857600080fd5b506101a1600480360381019080803573ffffffffffffffffffffffffffffffffffffffff16906020019092919080359060200190929190803590602001909291908035906020019092919080359060200190929190803515159060200190929190505050610654565b005b3480156101af57600080fd5b506101e4600480360381019080803573ffffffffffffffffffffffffffffffffffffffff1690602001909291905050506109cd565b005b3480156101f257600080fd5b506101fb610c93565b6040518082815260200191505060405180910390f35b34801561021d57600080fd5b50610226610c99565b005b34801561023457600080fd5b5061023d610f1c565b604051808273ffffffffffffffffffffffffffffffffffffffff1673ffffffffffffffffffffffffffffffffffffffff16815260200191505060405180910390f35b34801561028b57600080fd5b506102c0600480360381019080803573ffffffffffffffffffffffffffffffffffffffff169060200190929190505050610f41565b6040518087815260200186815260200185815260200184815260200183815260200182151515158152602001965050505050505060405180910390f35b34801561030957600080fd5b50610312610f8a565b604051808273ffffffffffffffffffffffffffffffffffffffff1673ffffffffffffffffffffffffffffffffffffffff16815260200191505060405180910390f35b34801561036057600080fd5b50610395600480360381019080803573ffffffffffffffffffffffffffffffffffffffff169060200190929190505050610fb0565b005b3480156103a357600080fd5b506103ac61104f565b604051808273ffffffffffffffffffffffffffffffffffffffff1673ffffffffffffffffffffffffffffffffffffffff16815260200191505060405180910390f35b600080600360008573ffffffffffffffffffffffffffffffffffffffff1673ffffffffffffffffffffffffffffffffffffffff168152602001908152602001600020905060008160000154141561044857600091506104ae565b6104ab8160c0604051908101604052908160008201548152602001600182015481526020016002820154815260200160038201548152602001600482015481526020016005820160009054906101000a900460ff16151515158152505084611075565b91505b5092915050565b600160009054906101000a900473ffffffffffffffffffffffffffffffffffffffff1673ffffffffffffffffffffffffffffffffffffffff163373ffffffffffffffffffffffffffffffffffffffff1614151561051157600080fd5b600160009054906101000a900473ffffffffffffffffffffffffffffffffffffffff1673ffffffffffffffffffffffffffffffffffffffff166000809054906101000a900473ffffffffffffffffffffffffffffffffffffffff1673ffffffffffffffffffffffffffffffffffffffff167f8be0079c531659141344cd1fd0a4f28419497f9722a3daafe3b4186f6b6457e060405160405180910390a3600160009054906101000a900473ffffffffffffffffffffffffffffffffffffffff166000806101000a81548173ffffffffffffffffffffffffffffffffffffffff021916908373ffffffffffffffffffffffffffffffffffffffff1602179055506000600160006101000a81548173ffffffffffffffffffffffffffffffffffffffff021916908373ffffffffffffffffffffffffffffffffffffffff160217905550565b6000809054906101000a900473ffffffffffffffffffffffffffffffffffffffff1673ffffffffffffffffffffffffffffffffffffffff163373ffffffffffffffffffffffffffffffffffffffff161415156106af57600080fd5b600073ffffffffffffffffffffffffffffffffffffffff168673ffffffffffffffffffffffffffffffffffffffff16141515156106eb57600080fd5b6000851115156106fa57600080fd5b6000600360008873ffffffffffffffffffffffffffffffffffffffff1673ffffffffffffffffffffffffffffffffffffffff1681526020019081526020016000206000015414151561074b57600080fd5b82841115801561075b5750818311155b151561076657600080fd5b600260009054906101000a900473ffffffffffffffffffffffffffffffffffffffff1673ffffffffffffffffffffffffffffffffffffffff166370a08231306040518263ffffffff167c0100000000000000000000000000000000000000000000000000000000028152600401808273ffffffffffffffffffffffffffffffffffffffff1673ffffffffffffffffffffffffffffffffffffffff168152602001915050602060405180830381600087803b15801561082357600080fd5b505af1158015610837573d6000803e3d6000fd5b505050506040513d602081101561084d57600080fd5b81019080805190602001909291905050506108738660045461110790919063ffffffff16565b1115151561088057600080fd5b60c06040519081016040528086815260200185815260200184815260200183815260200160008152602001821515815250600360008873ffffffffffffffffffffffffffffffffffffffff1673ffffffffffffffffffffffffffffffffffffffff168152602001908152602001600020600082015181600001556020820151816001015560408201518160020155606082015181600301556080820151816004015560a08201518160050160006101000a81548160ff02191690831515021790555090505061095a8560045461110790919063ffffffff16565b6004819055508573ffffffffffffffffffffffffffffffffffffffff163373ffffffffffffffffffffffffffffffffffffffff167ffabf00c3717e5e33d6fcc433d4d70ef919a4101fb7d5c444fe349927034eaa45876040518082815260200191505060405180910390a3505050505050565b6000806000809054906101000a900473ffffffffffffffffffffffffffffffffffffffff1673ffffffffffffffffffffffffffffffffffffffff163373ffffffffffffffffffffffffffffffffffffffff16141515610a2b57600080fd5b600360008473ffffffffffffffffffffffffffffffffffffffff1673ffffffffffffffffffffffffffffffffffffffff16815260200190815260200160002091508160050160009054906101000a900460ff161515610a8957600080fd5b610aa48260040154836000015461112590919063ffffffff16565b9050600360008473ffffffffffffffffffffffffffffffffffffffff1673ffffffffffffffffffffffffffffffffffffffff16815260200190815260200160002060008082016000905560018201600090556002820160009055600382016000905560048201600090556005820160006101000a81549060ff02191690555050610b398160045461112590919063ffffffff16565b600481905550600260009054906101000a900473ffffffffffffffffffffffffffffffffffffffff1673ffffffffffffffffffffffffffffffffffffffff1663a9059cbb33836040518363ffffffff167c0100000000000000000000000000000000000000000000000000000000028152600401808373ffffffffffffffffffffffffffffffffffffffff1673ffffffffffffffffffffffffffffffffffffffff16815260200182815260200192505050602060405180830381600087803b158015610c0457600080fd5b505af1158015610c18573d6000803e3d6000fd5b505050506040513d6020811015610c2e57600080fd5b8101908080519060200190929190505050508273ffffffffffffffffffffffffffffffffffffffff167fe25d8515ad21a65f901eaac99e62ae923aa01c8eb5812dce069abd9ea2785b57826040518082815260200191505060405180910390a2505050565b60045481565b6000806000600360003373ffffffffffffffffffffffffffffffffffffffff1673ffffffffffffffffffffffffffffffffffffffff16815260200190815260200160002092506000836000015414151515610cf357600080fd5b610d568360c0604051908101604052908160008201548152602001600182015481526020016002820154815260200160038201548152602001600482015481526020016005820160009054906101000a900460ff16151515158152505042611075565b91506000821415610d6657610f17565b610d7d83600401548361112590919063ffffffff16565b90506000811415610d8d57610f17565b610da481846004015461110790919063ffffffff16565b8360040181905550610dc18160045461112590919063ffffffff16565b600481905550600260009054906101000a900473ffffffffffffffffffffffffffffffffffffffff1673ffffffffffffffffffffffffffffffffffffffff1663a9059cbb33836040518363ffffffff167c0100000000000000000000000000000000000000000000000000000000028152600401808373ffffffffffffffffffffffffffffffffffffffff1673ffffffffffffffffffffffffffffffffffffffff16815260200182815260200192505050602060405180830381600087803b158015610e8c57600080fd5b505af1158015610ea0573d6000803e3d6000fd5b505050506040513d6020811015610eb657600080fd5b8101908080519060200190929190505050503373ffffffffffffffffffffffffffffffffffffffff167f18a0e773189b1ed3c86000a786f0a897168a9b8b2a805c482c91e69ca25e4b3c826040518082815260200191505060405180910390a25b505050565b6000809054906101000a900473ffffffffffffffffffffffffffffffffffffffff1681565b60036020528060005260406000206000915090508060000154908060010154908060020154908060030154908060040154908060050160009054906101000a900460ff16905086565b600160009054906101000a900473ffffffffffffffffffffffffffffffffffffffff1681565b6000809054906101000a900473ffffffffffffffffffffffffffffffffffffffff1673ffffffffffffffffffffffffffffffffffffffff163373ffffffffffffffffffffffffffffffffffffffff1614151561100b57600080fd5b80600160006101000a81548173ffffffffffffffffffffffffffffffffffffffff021916908373ffffffffffffffffffffffffffffffffffffffff16021790555050565b600260009054906101000a900473ffffffffffffffffffffffffffffffffffffffff1681565b6000826040015182101561108c5760009050611101565b8260600151821015156110a55782600001519050611101565b6110fe6110c38460200151856060015161112590919063ffffffff16565b6110f06110dd86602001518661112590919063ffffffff16565b866000015161113e90919063ffffffff16565b61117190919063ffffffff16565b90505b92915050565b600080828401905083811015151561111b57fe5b8091505092915050565b600082821115151561113357fe5b818303905092915050565b6000808284029050600084148061115f575082848281151561115c57fe5b04145b151561116757fe5b8091505092915050565b600080828481151561117f57fe5b04905080915050929150505600a165627a7a72305820853059f0967c06bc79bffb1dc6cbcd293d250136fe157180fd54fa6e5d95a1220029",
  "source": "pragma solidity ^0.4.23;\n\nimport './math/SafeMath.sol';\nimport './ownership/Claimable.sol';\nimport './IPSSmartToken.sol'; \n\n/// @title Vesting trustee contract for IPS token.\ncontract IPSVestingTrustee is Claimable {\n    using SafeMath for uint256;\n\n    // The address of the IPS ERC20 token.\n    IPSSmartToken public token;\n\n    struct Grant {\n    uint256 value;\n    uint256 start;\n    uint256 cliff;\n    uint256 end;\n    uint256 transferred;\n    bool revokable;\n    }\n\n    // Grants holder.\n    mapping (address => Grant) public grants;\n\n    // Total tokens available for vesting\n    uint256 public totalVesting;\n\n    event NewGrant(address indexed _from, address indexed _to, uint256 _value);\n    event UnlockGrant(address indexed _holder, uint256 _value);\n    event RevokeGrant(address indexed _holder, uint256 _refund);\n\n    /// @dev Constructor that initializes the address of the IPsSmartToken contract.\n    /// @param _token IPSSmartToken The address of the previously deployed IPsSmartToken smart contract.\n    function IPSVestingTrustee(IPSSmartToken _token) {\n        require(_token != address(0));\n\n        token = _token;\n    }\n\n    /// @dev Grant tokens to a specified address.\n    /// @param _to address The address to grant tokens to.\n    /// @param _value uint256 The amount of tokens to be granted.\n    /// @param _start uint256 The beginning of the vesting period.\n    /// @param _cliff uint256 Duration of the cliff period.\n    /// @param _end uint256 The end of the vesting period.\n    /// @param _revokable bool Whether the grant is revokable or not.\n    function grant(address _to, uint256 _value, uint256 _start, uint256 _cliff, uint256 _end, bool _revokable)\n    public onlyOwner {\n        require(_to != address(0));\n        require(_value > 0);\n\n        // Make sure that a single address can be granted tokens only once.\n        require(grants[_to].value == 0);\n\n        // Check for date inconsistencies that may cause unexpected behavior.\n        require(_start <= _cliff && _cliff <= _end);\n\n        // Check that this grant doesn't exceed the total amount of tokens currently available for vesting.\n        require(totalVesting.add(_value) <= token.balanceOf(address(this)));\n\n        // Assign a new grant.\n        grants[_to] = Grant({\n        value: _value,\n        start: _start,\n        cliff: _cliff,\n        end: _end,\n        transferred: 0,\n        revokable: _revokable\n        });\n\n        // Tokens granted, reduce the total amount available for vesting.\n        totalVesting = totalVesting.add(_value);\n\n        NewGrant(msg.sender, _to, _value);\n    }\n\n    /// @dev Revoke the grant of tokens of a specifed address.\n    /// @param _holder The address which will have its tokens revoked.\n    function revoke(address _holder) public onlyOwner {\n        Grant grant = grants[_holder];\n\n        require(grant.revokable);\n\n        // Send the remaining STX back to the owner.\n        uint256 refund = grant.value.sub(grant.transferred);\n\n        // Remove the grant.\n        delete grants[_holder];\n\n        totalVesting = totalVesting.sub(refund);\n        token.transfer(msg.sender, refund);\n\n        RevokeGrant(_holder, refund);\n    }\n\n    /// @dev Calculate the total amount of vested tokens of a holder at a given time.\n    /// @param _holder address The address of the holder.\n    /// @param _time uint256 The specific time.\n    /// @return a uint256 representing a holder's total amount of vested tokens.\n    function vestedTokens(address _holder, uint256 _time) public constant returns (uint256) {\n        Grant grant = grants[_holder];\n        if (grant.value == 0) {\n            return 0;\n        }\n\n        return calculateVestedTokens(grant, _time);\n    }\n\n    /// @dev Calculate amount of vested tokens at a specifc time.\n    /// @param _grant Grant The vesting grant.\n    /// @param _time uint256 The time to be checked\n    /// @return An uint256 representing the amount of vested tokens of a specific grant.\n    ///   |                         _/--------   vestedTokens rect\n    ///   |                       _/\n    ///   |                     _/\n    ///   |                   _/\n    ///   |                 _/\n    ///   |                /\n    ///   |              .|\n    ///   |            .  |\n    ///   |          .    |\n    ///   |        .      |\n    ///   |      .        |\n    ///   |    .          |\n    ///   +===+===========+---------+----------> time\n    ///     Start       Cliff      End\n    function calculateVestedTokens(Grant _grant, uint256 _time) private constant returns (uint256) {\n        // If we're before the cliff, then nothing is vested.\n        if (_time < _grant.cliff) {\n            return 0;\n        }\n\n        // If we're after the end of the vesting period - everything is vested;\n        if (_time >= _grant.end) {\n            return _grant.value;\n        }\n\n        // Interpolate all vested tokens: vestedTokens = tokens/// (time - start) / (end - start)\n        return _grant.value.mul(_time.sub(_grant.start)).div(_grant.end.sub(_grant.start));\n    }\n\n    /// @dev Unlock vested tokens and transfer them to their holder.\n    /// @return a uint256 representing the amount of vested tokens transferred to their holder.\n    function unlockVestedTokens() public {\n        Grant grant = grants[msg.sender];\n        require(grant.value != 0);\n\n        // Get the total amount of vested tokens, acccording to grant.\n        uint256 vested = calculateVestedTokens(grant, now);\n        if (vested == 0) {\n            return;\n        }\n\n        // Make sure the holder doesn't transfer more than what he already has.\n        uint256 transferable = vested.sub(grant.transferred);\n        if (transferable == 0) {\n            return;\n        }\n\n        grant.transferred = grant.transferred.add(transferable);\n        totalVesting = totalVesting.sub(transferable);\n        token.transfer(msg.sender, transferable);\n\n        UnlockGrant(msg.sender, transferable);\n    }\n}\n",
  "sourcePath": "C:\\smart+pj\\IPS-Develop\\contracts\\IPSVestingTrustee.sol",
  "compiler": {
    "name": "solc",
    "version": "0.4.23+commit.124ca40d.Emscripten.clang"
  },
  "schemaVersion": "2.0.0",
  "updatedAt": "2018-05-09T13:34:25.816Z"
}