{
  "contractName": "RefundVault",
  "abi": [
    {
      "constant": true,
      "inputs": [],
      "name": "etherWallet",
      "outputs": [
        {
          "name": "",
          "type": "address"
        }
      ],
      "payable": false,
      "stateMutability": "view",
      "type": "function"
    },
    {
      "constant": true,
      "inputs": [],
      "name": "REFUND_TIME_FRAME",
      "outputs": [
        {
          "name": "",
          "type": "uint256"
        }
      ],
      "payable": false,
      "stateMutability": "view",
      "type": "function"
    },
    {
      "constant": false,
      "inputs": [],
      "name": "claimOwnership",
      "outputs": [],
      "payable": false,
      "stateMutability": "nonpayable",
      "type": "function"
    },
    {
      "constant": true,
      "inputs": [],
      "name": "refundStartTime",
      "outputs": [
        {
          "name": "",
          "type": "uint256"
        }
      ],
      "payable": false,
      "stateMutability": "view",
      "type": "function"
    },
    {
      "constant": true,
      "inputs": [],
      "name": "owner",
      "outputs": [
        {
          "name": "",
          "type": "address"
        }
      ],
      "payable": false,
      "stateMutability": "view",
      "type": "function"
    },
    {
      "constant": true,
      "inputs": [
        {
          "name": "",
          "type": "address"
        }
      ],
      "name": "depositedToken",
      "outputs": [
        {
          "name": "",
          "type": "uint256"
        }
      ],
      "payable": false,
      "stateMutability": "view",
      "type": "function"
    },
    {
      "constant": true,
      "inputs": [],
      "name": "state",
      "outputs": [
        {
          "name": "",
          "type": "uint8"
        }
      ],
      "payable": false,
      "stateMutability": "view",
      "type": "function"
    },
    {
      "constant": true,
      "inputs": [],
      "name": "pendingOwner",
      "outputs": [
        {
          "name": "",
          "type": "address"
        }
      ],
      "payable": false,
      "stateMutability": "view",
      "type": "function"
    },
    {
      "constant": false,
      "inputs": [
        {
          "name": "newOwner",
          "type": "address"
        }
      ],
      "name": "transferOwnership",
      "outputs": [],
      "payable": false,
      "stateMutability": "nonpayable",
      "type": "function"
    },
    {
      "constant": true,
      "inputs": [
        {
          "name": "",
          "type": "address"
        }
      ],
      "name": "depositedETH",
      "outputs": [
        {
          "name": "",
          "type": "uint256"
        }
      ],
      "payable": false,
      "stateMutability": "view",
      "type": "function"
    },
    {
      "constant": true,
      "inputs": [],
      "name": "token",
      "outputs": [
        {
          "name": "",
          "type": "address"
        }
      ],
      "payable": false,
      "stateMutability": "view",
      "type": "function"
    },
    {
      "inputs": [
        {
          "name": "_etherWallet",
          "type": "address"
        },
        {
          "name": "_token",
          "type": "address"
        }
      ],
      "payable": false,
      "stateMutability": "nonpayable",
      "type": "constructor"
    },
    {
      "anonymous": false,
      "inputs": [],
      "name": "Active",
      "type": "event"
    },
    {
      "anonymous": false,
      "inputs": [],
      "name": "Closed",
      "type": "event"
    },
    {
      "anonymous": false,
      "inputs": [
        {
          "indexed": true,
          "name": "beneficiary",
          "type": "address"
        },
        {
          "indexed": false,
          "name": "etherWeiAmount",
          "type": "uint256"
        },
        {
          "indexed": false,
          "name": "tokenWeiAmount",
          "type": "uint256"
        }
      ],
      "name": "Deposit",
      "type": "event"
    },
    {
      "anonymous": false,
      "inputs": [],
      "name": "RefundsEnabled",
      "type": "event"
    },
    {
      "anonymous": false,
      "inputs": [
        {
          "indexed": false,
          "name": "beneficiary",
          "type": "address"
        },
        {
          "indexed": false,
          "name": "weiAmount",
          "type": "uint256"
        }
      ],
      "name": "RefundedETH",
      "type": "event"
    },
    {
      "anonymous": false,
      "inputs": [
        {
          "indexed": true,
          "name": "beneficiary",
          "type": "address"
        },
        {
          "indexed": false,
          "name": "weiAmount",
          "type": "uint256"
        }
      ],
      "name": "TokensClaimed",
      "type": "event"
    },
    {
      "anonymous": false,
      "inputs": [
        {
          "indexed": true,
          "name": "previousOwner",
          "type": "address"
        },
        {
          "indexed": true,
          "name": "newOwner",
          "type": "address"
        }
      ],
      "name": "OwnershipTransferred",
      "type": "event"
    },
    {
      "constant": false,
      "inputs": [
        {
          "name": "investor",
          "type": "address"
        },
        {
          "name": "tokensAmount",
          "type": "uint256"
        }
      ],
      "name": "deposit",
      "outputs": [],
      "payable": true,
      "stateMutability": "payable",
      "type": "function"
    },
    {
      "constant": false,
      "inputs": [],
      "name": "close",
      "outputs": [],
      "payable": false,
      "stateMutability": "nonpayable",
      "type": "function"
    },
    {
      "constant": false,
      "inputs": [],
      "name": "enableRefunds",
      "outputs": [],
      "payable": false,
      "stateMutability": "nonpayable",
      "type": "function"
    },
    {
      "constant": false,
      "inputs": [
        {
          "name": "ETHToRefundAmountWei",
          "type": "uint256"
        }
      ],
      "name": "refundETH",
      "outputs": [],
      "payable": false,
      "stateMutability": "nonpayable",
      "type": "function"
    },
    {
      "constant": false,
      "inputs": [
        {
          "name": "tokensToClaim",
          "type": "uint256"
        }
      ],
      "name": "claimTokens",
      "outputs": [],
      "payable": false,
      "stateMutability": "nonpayable",
      "type": "function"
    },
    {
      "constant": false,
      "inputs": [],
      "name": "claimAllTokens",
      "outputs": [],
      "payable": false,
      "stateMutability": "nonpayable",
      "type": "function"
    }
  ],
  "bytecode": "0x608060405234801561001057600080fd5b506040516040806117378339810180604052810190808051906020019092919080519060200190929190505050336000806101000a81548173ffffffffffffffffffffffffffffffffffffffff021916908373ffffffffffffffffffffffffffffffffffffffff160217905550600073ffffffffffffffffffffffffffffffffffffffff168273ffffffffffffffffffffffffffffffffffffffff16141515156100b957600080fd5b600073ffffffffffffffffffffffffffffffffffffffff168173ffffffffffffffffffffffffffffffffffffffff16141515156100f557600080fd5b81600460006101000a81548173ffffffffffffffffffffffffffffffffffffffff021916908373ffffffffffffffffffffffffffffffffffffffff16021790555080600560006101000a81548173ffffffffffffffffffffffffffffffffffffffff021916908373ffffffffffffffffffffffffffffffffffffffff1602179055506000600560146101000a81548160ff0219169083600281111561019657fe5b02179055507fc9b0a2a786a606c7564c856e06c58d7280f2198c3db6f5966a7b302319a36c8960405160405180910390a1505061155f806101d86000396000f3006080604052600436106100f1576000357c0100000000000000000000000000000000000000000000000000000000900463ffffffff1680630cd74cd9146100f65780631e4bd42c1461014d57806325fd1e291461016457806343d726d61461018f57806346e04a2f146101a657806347e7ef24146101d35780634e71e0c8146102135780636aba899b1461022a5780638c52dc41146102555780638da5cb5b1461026c578063907b503d146102c35780639531d0721461031a578063c19d93fb14610347578063e30c397814610380578063f2fde38b146103d7578063f5db8bc71461041a578063fc0c546a14610471575b600080fd5b34801561010257600080fd5b5061010b6104c8565b604051808273ffffffffffffffffffffffffffffffffffffffff1673ffffffffffffffffffffffffffffffffffffffff16815260200191505060405180910390f35b34801561015957600080fd5b506101626104ee565b005b34801561017057600080fd5b506101796105a1565b6040518082815260200191505060405180910390f35b34801561019b57600080fd5b506101a46105a8565b005b3480156101b257600080fd5b506101d16004803603810190808035906020019092919050505061071e565b005b610211600480360381019080803573ffffffffffffffffffffffffffffffffffffffff16906020019092919080359060200190929190505050610b48565b005b34801561021f57600080fd5b50610228610d5b565b005b34801561023657600080fd5b5061023f610efa565b6040518082815260200191505060405180910390f35b34801561026157600080fd5b5061026a610f00565b005b34801561027857600080fd5b50610281610fe8565b604051808273ffffffffffffffffffffffffffffffffffffffff1673ffffffffffffffffffffffffffffffffffffffff16815260200191505060405180910390f35b3480156102cf57600080fd5b50610304600480360381019080803573ffffffffffffffffffffffffffffffffffffffff16906020019092919050505061100d565b6040518082815260200191505060405180910390f35b34801561032657600080fd5b5061034560048036038101908080359060200190929190505050611025565b005b34801561035357600080fd5b5061035c611398565b6040518082600281111561036c57fe5b60ff16815260200191505060405180910390f35b34801561038c57600080fd5b506103956113ab565b604051808273ffffffffffffffffffffffffffffffffffffffff1673ffffffffffffffffffffffffffffffffffffffff16815260200191505060405180910390f35b3480156103e357600080fd5b50610418600480360381019080803573ffffffffffffffffffffffffffffffffffffffff1690602001909291905050506113d1565b005b34801561042657600080fd5b5061045b600480360381019080803573ffffffffffffffffffffffffffffffffffffffff169060200190929190505050611470565b6040518082815260200191505060405180910390f35b34801561047d57600080fd5b50610486611488565b604051808273ffffffffffffffffffffffffffffffffffffffff1673ffffffffffffffffffffffffffffffffffffffff16815260200191505060405180910390f35b600460009054906101000a900473ffffffffffffffffffffffffffffffffffffffff1681565b6000600160028111156104fd57fe5b600560149054906101000a900460ff16600281111561051857fe5b1480610548575060028081111561052b57fe5b600560149054906101000a900460ff16600281111561054657fe5b145b151561055357600080fd5b600360003373ffffffffffffffffffffffffffffffffffffffff1673ffffffffffffffffffffffffffffffffffffffff16815260200190815260200160002054905061059e8161071e565b50565b624f1a0081565b600160028111156105b557fe5b600560149054906101000a900460ff1660028111156105d057fe5b1415156105dc57600080fd5b6000809054906101000a900473ffffffffffffffffffffffffffffffffffffffff1673ffffffffffffffffffffffffffffffffffffffff163373ffffffffffffffffffffffffffffffffffffffff1614151561063757600080fd5b42624f1a006006540110151561064c57600080fd5b6002600560146101000a81548160ff0219169083600281111561066b57fe5b02179055507f1cdde67b72a90f19919ac732a437ac2f7a10fc128d28c2a6e525d89ce5cd9d3a60405160405180910390a1600460009054906101000a900473ffffffffffffffffffffffffffffffffffffffff1673ffffffffffffffffffffffffffffffffffffffff166108fc3073ffffffffffffffffffffffffffffffffffffffff16319081150290604051600060405180830381858888f1935050505015801561071b573d6000803e3d6000fd5b50565b6000806000806001600281111561073157fe5b600560149054906101000a900460ff16600281111561074c57fe5b148061077c575060028081111561075f57fe5b600560149054906101000a900460ff16600281111561077a57fe5b145b151561078757600080fd5b6000851415151561079757600080fd5b3393506000600360008673ffffffffffffffffffffffffffffffffffffffff1673ffffffffffffffffffffffffffffffffffffffff168152602001908152602001600020541115156107e857600080fd5b600360008573ffffffffffffffffffffffffffffffffffffffff1673ffffffffffffffffffffffffffffffffffffffff168152602001908152602001600020549250600260008573ffffffffffffffffffffffffffffffffffffffff1673ffffffffffffffffffffffffffffffffffffffff16815260200190815260200160002054915082851115151561087b57600080fd5b6108a08361089284886114ae90919063ffffffff16565b6114e190919063ffffffff16565b90506000811115156108ae57fe5b6108c181836114fc90919063ffffffff16565b600260008673ffffffffffffffffffffffffffffffffffffffff1673ffffffffffffffffffffffffffffffffffffffff1681526020019081526020016000208190555061091785846114fc90919063ffffffff16565b600360008673ffffffffffffffffffffffffffffffffffffffff1673ffffffffffffffffffffffffffffffffffffffff16815260200190815260200160002081905550600560009054906101000a900473ffffffffffffffffffffffffffffffffffffffff1673ffffffffffffffffffffffffffffffffffffffff1663a9059cbb85876040518363ffffffff167c0100000000000000000000000000000000000000000000000000000000028152600401808373ffffffffffffffffffffffffffffffffffffffff1673ffffffffffffffffffffffffffffffffffffffff16815260200182815260200192505050602060405180830381600087803b158015610a1f57600080fd5b505af1158015610a33573d6000803e3d6000fd5b505050506040513d6020811015610a4957600080fd5b810190808051906020019092919050505050600280811115610a6757fe5b600560149054906101000a900460ff166002811115610a8257fe5b141515610af357600460009054906101000a900473ffffffffffffffffffffffffffffffffffffffff1673ffffffffffffffffffffffffffffffffffffffff166108fc829081150290604051600060405180830381858888f19350505050158015610af1573d6000803e3d6000fd5b505b8373ffffffffffffffffffffffffffffffffffffffff167f896e034966eaaf1adc54acc0f257056febbd300c9e47182cf761982cf1f5e430866040518082815260200191505060405180910390a25050505050565b60006002811115610b5557fe5b600560149054906101000a900460ff166002811115610b7057fe5b141515610b7c57600080fd5b6000809054906101000a900473ffffffffffffffffffffffffffffffffffffffff1673ffffffffffffffffffffffffffffffffffffffff163373ffffffffffffffffffffffffffffffffffffffff16141515610bd757600080fd5b610c2934600260008573ffffffffffffffffffffffffffffffffffffffff1673ffffffffffffffffffffffffffffffffffffffff1681526020019081526020016000205461151590919063ffffffff16565b600260008473ffffffffffffffffffffffffffffffffffffffff1673ffffffffffffffffffffffffffffffffffffffff16815260200190815260200160002081905550610cbe81600360008573ffffffffffffffffffffffffffffffffffffffff1673ffffffffffffffffffffffffffffffffffffffff1681526020019081526020016000205461151590919063ffffffff16565b600360008473ffffffffffffffffffffffffffffffffffffffff1673ffffffffffffffffffffffffffffffffffffffff168152602001908152602001600020819055508173ffffffffffffffffffffffffffffffffffffffff167f90890809c654f11d6e72a28fa60149770a0d11ec6c92319d6ceb2bb0a4ea1a153483604051808381526020018281526020019250505060405180910390a25050565b600160009054906101000a900473ffffffffffffffffffffffffffffffffffffffff1673ffffffffffffffffffffffffffffffffffffffff163373ffffffffffffffffffffffffffffffffffffffff16141515610db757600080fd5b600160009054906101000a900473ffffffffffffffffffffffffffffffffffffffff1673ffffffffffffffffffffffffffffffffffffffff166000809054906101000a900473ffffffffffffffffffffffffffffffffffffffff1673ffffffffffffffffffffffffffffffffffffffff167f8be0079c531659141344cd1fd0a4f28419497f9722a3daafe3b4186f6b6457e060405160405180910390a3600160009054906101000a900473ffffffffffffffffffffffffffffffffffffffff166000806101000a81548173ffffffffffffffffffffffffffffffffffffffff021916908373ffffffffffffffffffffffffffffffffffffffff1602179055506000600160006101000a81548173ffffffffffffffffffffffffffffffffffffffff021916908373ffffffffffffffffffffffffffffffffffffffff160217905550565b60065481565b60006002811115610f0d57fe5b600560149054906101000a900460ff166002811115610f2857fe5b141515610f3457600080fd5b6000809054906101000a900473ffffffffffffffffffffffffffffffffffffffff1673ffffffffffffffffffffffffffffffffffffffff163373ffffffffffffffffffffffffffffffffffffffff16141515610f8f57600080fd5b6001600560146101000a81548160ff02191690836002811115610fae57fe5b0217905550426006819055507f599d8e5a83cffb867d051598c4d70e805d59802d8081c1c7d6dffc5b6aca2b8960405160405180910390a1565b6000809054906101000a900473ffffffffffffffffffffffffffffffffffffffff1681565b60036020528060005260406000206000915090505481565b60008060004260065411158015611042575042624f1a0060065401115b151561104d57600080fd5b6001600281111561105a57fe5b600560149054906101000a900460ff16600281111561107557fe5b14151561108157600080fd5b6000841415151561109157600080fd5b600360003373ffffffffffffffffffffffffffffffffffffffff1673ffffffffffffffffffffffffffffffffffffffff168152602001908152602001600020549250600260003373ffffffffffffffffffffffffffffffffffffffff1673ffffffffffffffffffffffffffffffffffffffff16815260200190815260200160002054915081841115151561112457600080fd5b6111498261113b85876114ae90919063ffffffff16565b6114e190919063ffffffff16565b905060008111151561115757fe5b61116a84836114fc90919063ffffffff16565b600260003373ffffffffffffffffffffffffffffffffffffffff1673ffffffffffffffffffffffffffffffffffffffff168152602001908152602001600020819055506111c081846114fc90919063ffffffff16565b600360003373ffffffffffffffffffffffffffffffffffffffff1673ffffffffffffffffffffffffffffffffffffffff16815260200190815260200160002081905550600560009054906101000a900473ffffffffffffffffffffffffffffffffffffffff1673ffffffffffffffffffffffffffffffffffffffff1663a24835d130836040518363ffffffff167c0100000000000000000000000000000000000000000000000000000000028152600401808373ffffffffffffffffffffffffffffffffffffffff1673ffffffffffffffffffffffffffffffffffffffff16815260200182815260200192505050600060405180830381600087803b1580156112c857600080fd5b505af11580156112dc573d6000803e3d6000fd5b505050503373ffffffffffffffffffffffffffffffffffffffff166108fc859081150290604051600060405180830381858888f19350505050158015611326573d6000803e3d6000fd5b507fab6231f1e734177085d749a58b4b7cc5a0ce9db73b9fd42de7b19e1a66f5dc8b3385604051808373ffffffffffffffffffffffffffffffffffffffff1673ffffffffffffffffffffffffffffffffffffffff1681526020018281526020019250505060405180910390a150505050565b600560149054906101000a900460ff1681565b600160009054906101000a900473ffffffffffffffffffffffffffffffffffffffff1681565b6000809054906101000a900473ffffffffffffffffffffffffffffffffffffffff1673ffffffffffffffffffffffffffffffffffffffff163373ffffffffffffffffffffffffffffffffffffffff1614151561142c57600080fd5b80600160006101000a81548173ffffffffffffffffffffffffffffffffffffffff021916908373ffffffffffffffffffffffffffffffffffffffff16021790555050565b60026020528060005260406000206000915090505481565b600560009054906101000a900473ffffffffffffffffffffffffffffffffffffffff1681565b600080828402905060008414806114cf57508284828115156114cc57fe5b04145b15156114d757fe5b8091505092915050565b60008082848115156114ef57fe5b0490508091505092915050565b600082821115151561150a57fe5b818303905092915050565b600080828401905083811015151561152957fe5b80915050929150505600a165627a7a7230582082c43998d9c945e41b7242b3f36b4290de4e35d772d404b31c24d06957648c9f0029",
  "source": "pragma solidity ^0.4.23;\n\nimport '../math/SafeMath.sol';\nimport '../ownership/Claimable.sol';\nimport '../token/ERC20.sol';\nimport '../IPSSmartToken.sol';\n\n/**\n * @title RefundVault\n * @dev This contract is used for storing TOKENS AND ETHER while a crowdsale is in progress for a period of 60 DAYS.\n * Investor can ask for a full/part refund for his ether against token. Once tokens are Claimed by the investor, they cannot be refunded.\n * After 60 days, all ether will be withdrawn from the vault`s wallet, leaving all tokens to be claimed by the their owners.\n **/\ncontract RefundVault is Claimable {\n    using SafeMath for uint256;\n\n    // =================================================================================================================\n    //                                      Enums\n    // =================================================================================================================\n\n    enum State { Active, Refunding, Closed }\n\n    // =================================================================================================================\n    //                                      Members\n    // =================================================================================================================\n\n    // Refund time frame\n    uint256 public constant REFUND_TIME_FRAME = 60 days;\n\n    mapping (address => uint256) public depositedETH;\n    mapping (address => uint256) public depositedToken;\n\n    address public etherWallet;\n    IPSSmartToken public token;\n    State public state;\n    uint256 public refundStartTime;\n\n    // =================================================================================================================\n    //                                      Events\n    // =================================================================================================================\n\n    event Active();\n    event Closed();\n    event Deposit(address indexed beneficiary, uint256 etherWeiAmount, uint256 tokenWeiAmount);\n    event RefundsEnabled();\n    event RefundedETH(address beneficiary, uint256 weiAmount);\n    event TokensClaimed(address indexed beneficiary, uint256 weiAmount);\n\n    // =================================================================================================================\n    //                                      Modifiers\n    // =================================================================================================================\n\n    modifier isActiveState() {\n        require(state == State.Active);\n        _;\n    }\n\n    modifier isRefundingState() {\n        require(state == State.Refunding);\n        _;\n    }\n\n    modifier isCloseState() {\n        require(state == State.Closed);\n        _;\n    }\n\n    modifier isRefundingOrCloseState() {\n        require(state == State.Refunding || state == State.Closed);\n        _;\n    }\n\n    modifier  isInRefundTimeFrame() {\n        require(refundStartTime <= now && refundStartTime + REFUND_TIME_FRAME > now);\n        _;\n    }\n\n    modifier isRefundTimeFrameExceeded() {\n        require(refundStartTime + REFUND_TIME_FRAME < now);\n        _;\n    }\n\n\n    // =================================================================================================================\n    //                                      Ctors\n    // =================================================================================================================\n\n    function RefundVault(address _etherWallet, IPSSmartToken _token) public {\n        require(_etherWallet != address(0));\n        require(_token != address(0));\n\n        etherWallet = _etherWallet;\n        token = _token;\n        state = State.Active;\n        Active();\n    }\n\n    // =================================================================================================================\n    //                                      Public Functions\n    // =================================================================================================================\n\n    function deposit(address investor, uint256 tokensAmount) isActiveState onlyOwner public payable {\n\n        depositedETH[investor] = depositedETH[investor].add(msg.value);\n        depositedToken[investor] = depositedToken[investor].add(tokensAmount);\n\n        Deposit(investor, msg.value, tokensAmount);\n    }\n\n    function close() isRefundingState onlyOwner isRefundTimeFrameExceeded public {\n        state = State.Closed;\n        Closed();\n        etherWallet.transfer(this.balance);\n    }\n\n    function enableRefunds() isActiveState onlyOwner public {\n        state = State.Refunding;\n        refundStartTime = now;\n\n        RefundsEnabled();\n    }\n\n    //@dev Refund ether back to the investor in returns of proportional amount of SRN\n    //back to the Sirin`s wallet\n    function refundETH(uint256 ETHToRefundAmountWei) isInRefundTimeFrame isRefundingState public {\n        require(ETHToRefundAmountWei != 0);\n\n        uint256 depositedTokenValue = depositedToken[msg.sender];\n        uint256 depositedETHValue = depositedETH[msg.sender];\n\n        require(ETHToRefundAmountWei <= depositedETHValue);\n\n        uint256 refundTokens = ETHToRefundAmountWei.mul(depositedTokenValue).div(depositedETHValue);\n\n        assert(refundTokens > 0);\n\n        depositedETH[msg.sender] = depositedETHValue.sub(ETHToRefundAmountWei);\n        depositedToken[msg.sender] = depositedTokenValue.sub(refundTokens);\n\n        token.destroy(address(this),refundTokens);\n        msg.sender.transfer(ETHToRefundAmountWei);\n\n        RefundedETH(msg.sender, ETHToRefundAmountWei);\n    }\n\n    //@dev Transfer tokens from the vault to the investor while releasing proportional amount of ether\n    //to IPS`s wallet.\n    //Can be triggerd by the investor only\n    function claimTokens(uint256 tokensToClaim) isRefundingOrCloseState public {\n        require(tokensToClaim != 0);\n\n        address investor = msg.sender;\n        require(depositedToken[investor] > 0);\n\n        uint256 depositedTokenValue = depositedToken[investor];\n        uint256 depositedETHValue = depositedETH[investor];\n\n        require(tokensToClaim <= depositedTokenValue);\n\n        uint256 claimedETH = tokensToClaim.mul(depositedETHValue).div(depositedTokenValue);\n\n        assert(claimedETH > 0);\n\n        depositedETH[investor] = depositedETHValue.sub(claimedETH);\n        depositedToken[investor] = depositedTokenValue.sub(tokensToClaim);\n\n        token.transfer(investor, tokensToClaim);\n        if(state != State.Closed) {\n            etherWallet.transfer(claimedETH);\n        }\n\n        TokensClaimed(investor, tokensToClaim);\n    }\n\n    // @dev investors can claim tokens by calling the function\n    // @param tokenToClaimAmount - amount of the token to claim\n    function claimAllTokens() isRefundingOrCloseState public  {\n        uint256 depositedTokenValue = depositedToken[msg.sender];\n        claimTokens(depositedTokenValue);\n    }\n\n\n}\n",
  "sourcePath": "C:\\smart+pj\\IPS-Develop\\contracts\\crowdsale\\RefundVault.sol",
  "compiler": {
    "name": "solc",
    "version": "0.4.23+commit.124ca40d.Emscripten.clang"
  },
  "schemaVersion": "2.0.0",
  "updatedAt": "2018-05-09T15:14:24.532Z"
}